:020000040000FA
:04000000D7EF7CF0CA
:10F83A003F0E326E000E336E6FEC7CF03D0E326E70
:10F84A00000E336E6FEC7CF012003F0E326E000E2B
:10F85A00336E89EC7CF03D0E326E000E336E89EC0D
:10F86A007CF012003F0E326E000E336EBDEC7CF05F
:10F87A003D0E326E000E336EBDEC7CF012003D0E72
:10F88A00326E000E336E6FEC7CF03F0E326E000E5D
:10F89A00336E89EC7CF012003D0E326E000E336E30
:10F8AA0089EC7CF03F0E326E000E336E6FEC7CF00A
:10F8BA001200800F810F820F830F840F890F8A0F26
:10F8CA008B0F8C0F8D0F920F930F940F950F960F2E
:10F8DA007262524232503310D8A476EF7CF078EF3D
:10F8EA007CF07AEF7CF088EF7CF032C02EF033C0E7
:10F8FA002FF068EC7DF0010E32242E6E000E3320BC
:10F90A002F6EA8EC7DF0120032503310D8A490EF7D
:10F91A007CF092EF7CF094EF7CF0A2EF7CF032C0A6
:10F92A002EF033C02FF0A8EC7DF0010E32242E6E9B
:10F93A00000E33202F6E68EC7DF012003250331027
:10F94A00D8A4AAEF7CF0ACEF7CF0AEEF7CF0BCEF71
:10F95A007CF032C02EF033C02FF0E8EC7DF0010EBF
:10F96A0032242E6E000E33202F6EE8EC7DF012004A
:10F97A0032503310D8A4C4EF7CF0C6EF7CF0C8EF45
:10F98A007CF0D6EF7CF032C02EF033C02FF068EC5A
:10F99A007DF0010E32242E6E000E33202F6E68EC9D
:10F9AA007DF01200BC0EF66EF80EF76E000EF86EC1
:10F9BA0000EE01F010EE22F00900F5CFEEFFE5505F
:10F9CA00E150FAE100EE35F00C0EEE6AE806FDE1D0
:10F9DA00000EF86E000160EF7FF02E502F10D8B4A1
:10F9EA00F9EF7CF0FBEF7CF02CEF7DF02EC0D9FF15
:10F9FA002FC0DAFFDF500F0B306E050E306008EFB4
:10FA0A007DF00AEF7DF02CEF7DF02EC0D9FF2FC0DC
:10FA1A00DAFFDF38070B306E070E306417EF7DF020
:10FA2A0019EF7DF01BEF7DF02CEF7DF02EC0D9FF92
:10FA3A002FC0DAFFDF38070B236E010E246E2EC0AB
:10FA4A00D9FF2FC0DAFFDF500F0BF1EC7EF0120066
:10FA5A002C6E080E236034EF7DF036EF7DF067EFF1
:10FA6A007DF024502510D8A43DEF7DF03FEF7DF0C6
:10FA7A0041EF7DF067EF7DF023C026F02C50020D98
:10FA8A00010EF324D96E000EF420DA6EDECF27F0D1
:10FA9A00DDCF28F027C0D9FF28C0DAFFDECF29F052
:10FAAA00DDCF2AF0262A5DEF7DF0D8902A3229325E
:10FABA00262E5AEF7DF02950010B24C0D9FF25C00C
:10FACA00DAFFDF6E12002E502F10D8B46FEF7DF0E0
:10FADA0071EF7DF0A7EF7DF02EC0D9FF2FC0DAFFBE
:10FAEA00DF500F0B306E050E30607EEF7DF080EF39
:10FAFA007DF0A7EF7DF02EC0D9FF2FC0DAFFDF38E7
:10FB0A00070B306E070E30648DEF7DF08FEF7DF0BE
:10FB1A0091EF7DF0A7EF7DF02EC0D9FF2FC0DAFF5D
:10FB2A00DF38070B236E000E246E2EC0D9FF2FC0BC
:10FB3A00DAFFDF500F0B82EC7EF02EC0D9FF2FC008
:10FB4A00DAFFDF9E12002E502F10D8B4AFEF7DF0EF
:10FB5A00B1EF7DF0E7EF7DF02EC0D9FF2FC0DAFFBD
:10FB6A00DF500F0B306E050E3060BEEF7DF0C0EF38
:10FB7A007DF0E7EF7DF02EC0D9FF2FC0DAFFDF3826
:10FB8A00070B306E070E3064CDEF7DF0CFEF7DF0BE
:10FB9A00D1EF7DF0E7EF7DF02EC0D9FF2FC0DAFF5D
:10FBAA00DF38070B236E010E246E2EC0D9FF2FC03B
:10FBBA00DAFFDF500F0B82EC7EF02EC0D9FF2FC088
:10FBCA00DAFFDF8E12002E502F10D8B4EFEF7DF03F
:10FBDA00F1EF7DF033EF7EF02EC0D9FF2FC0DAFFB0
:10FBEA00DF500F0B306E050E3060FEEF7DF000EF38
:10FBFA007EF033EF7EF02EC0D9FF2FC0DAFFDF3858
:10FC0A00070B306E070E30640DEF7EF00FEF7EF0BB
:10FC1A0011EF7EF033EF7EF02EC0D9FF2FC0DAFF4E
:10FC2A00DF38070B236E000E246E2EC0D9FF2FC0BB
:10FC3A00DAFFDF500F0BF1EC7EF02EC0D9FF2FC098
:10FC4A00DAFFDF38070B236E000E246E2EC0D9FFB1
:10FC5A002FC0DAFFDF500F0B82EC7EF012002D501E
:10FC6A002E10D8B43BEF7EF03DEF7EF081EF7EF0B0
:10FC7A002DC0D9FF2EC0DAFFDF500F0B316E050EF3
:10FC8A0031604AEF7EF04CEF7EF081EF7EF02DC0BE
:10FC9A00D9FF2EC0DAFFDF38070B316E070E316449
:10FCAA0059EF7EF05BEF7EF05DEF7EF081EF7EF044
:10FCBA002DC0D9FF2EC0DAFFDF38070B236E2FC005
:10FCCA0024F030C025F02DC0D9FF2EC0DAFFDF5056
:10FCDA000F0B2DEC7DF02FC0D9FF30C0DAFFDF50BB
:10FCEA00316E2DC0D9FF2EC0DAFF31323132DF50EA
:10FCFA0031187F0B3118DF6E12002D6E080E23604B
:10FD0A0089EF7EF08BEF7EF0F0EF7EF0DBEF7EF096
:10FD1A0023C025F0010E266E000E276E252A99EFC4
:10FD2A007EF0D89026362736252E96EF7EF0261CB2
:10FD3A00286E271C296E2D50020D0B0EF324D96E46
:10FD4A00000EF420DA6EDECF2AF0DDCF2BF02AC0C7
:10FD5A00D9FF2BC0DAFF2850DE162950DD16F0EF46
:10FD6A007EF023C025F0010E266E000E276E252A8E
:10FD7A00C2EF7EF0D89026362736252EBFEF7EF0CA
:10FD8A002D50020D0B0EF324D96E000EF420DA6EFC
:10FD9A00DECF28F0DDCF29F028C0D9FF29C0DAFF4D
:10FDAA002650DE122750DD12F0EF7EF02450256E29
:10FDBA00266A2650000AD8B4E5EF7EF0F0EF7EF00E
:10FDCA002550000AD8B48DEF7EF0010AD8B4B6EFF8
:10FDDA007EF0F0EF7EF012002D6E080E2360F8EF31
:10FDEA007EF0FAEF7EF05FEF7FF04AEF7FF023C0FC
:10FDFA0025F0010E266E000E276E252A08EF7FF0E9
:10FE0A00D89026362736252E05EF7FF0261C286E39
:10FE1A00271C296E2D50020D150EF324D96E000EE3
:10FE2A00F420DA6EDECF2AF0DDCF2BF02AC0D9FF1C
:10FE3A002BC0DAFF2850DE162950DD165FEF7FF05F
:10FE4A0023C025F0010E266E000E276E252A31EFFB
:10FE5A007FF0D89026362736252E2EEF7FF02D50AC
:10FE6A00020D150EF324D96E000EF420DA6EDECFE1
:10FE7A0028F0DDCF29F028C0D9FF29C0DAFF2650A3
:10FE8A00DE122750DD125FEF7FF02450256E266ABE
:10FE9A002650000AD8B454EF7FF05FEF7FF0255068
:10FEAA00000AD8B4FCEF7EF0010AD8B425EF7FF03F
:10FEBA005FEF7FF012003F50F00B02093F6E8F0E8A
:10FECA003F163F8E4050F00B0209406E40508F0B98
:10FEDA001009406E408E3D50F00B02093D6E3D50B8
:10FEEA008F0B20093D6E3D8E3E50F00B02093E6E8F
:10FEFA003E508F0B30093E6E3E8E3F0E326E000E24
:10FF0A00336EA3EC7CF03D0E326E000E336EA3EC22
:10FF1A007CF0220E2E6E000E2F6EF2EC7CF0210E7B
:10FF2A002E6E000E2F6EF2EC7CF0200E2E6E000E5E
:10FF3A002F6EF2EC7CF01F0E2E6E000E2F6EF2EC7E
:10FF4A007CF0220E2D6E000E2E6E3B0E2F6E000ED2
:10FF5A00306E34EC7EF0210E2D6E000E2E6E390EB0
:10FF6A002F6E000E306E34EC7EF0200E2D6E000ED9
:10FF7A002E6E370E2F6E000E306E34EC7EF01F0E92
:10FF8A002D6E000E2E6E350E2F6E000E306E34EC76
:10FF9A007EF022AED3EF7FF0D5EF7FF0D9EF7FF07E
:10FFAA002AEC7CF0A6EF7FF021AEDEEF7FF0E0EFE7
:10FFBA007FF0E4EF7FF01DEC7CF0A6EF7FF020AE3F
:10FFCA00E9EF7FF0EBEF7FF0EFEF7FF051EC7CF0A1
:10FFDA00A6EF7FF01FAEF4EF7FF0F6EF7FF0FAEFB7
:10FFEA007FF044EC7CF0A6EF7FF037EC7CF0A6EFD4
:06FFFA007FF000EF00F0B3
:020000040020DA
:08000000FFFFFFFFFFFFFFFF00
:020000040030CA
:0E000000FF071F1FFF8B85FF0FC00FE00F4093
:00000001FF
